:100000000C942A000C94F0000C94F0000C94F00076
:100010000C94F0000C94F0000C94F0000C94F000A0
:100020000C94F0000C94F0000C94F0000C94F00090
:100030000C94F0000C94F0000C94F0000C94F00080
:100040000C94F0000C94F0000C94F0000C94F00070
:100050000C94F00011241FBECFE5D8E0DEBFCDBF69
:0C0060000E9436000C943400F894FFCF8E
:10006C00CF93DF93CDB7DEB70E94C40082E390E05C
:10007C0022E330E0F90120812062FC01208388EC2E
:10008C0090E00E94950082E390E022E330E0F901D9
:10009C0020812F7DFC01208382E390E022E330E07D
:1000AC00F90120812064FC01208388EC90E00E94FF
:1000BC00950082E390E022E330E0F90120812F7B70
:1000CC00FC01208382E390E022E330E0F9012081FF
:1000DC002068FC01208388EC90E00E94950082E36C
:1000EC0090E022E330E0F90120812F77FC0120839E
:1000FC0082E390E022E330E0F90120812061FC01F1
:10010C00208388EC90E00E94950082E390E022E34B
:0E011C0030E0F90120812F7EFC012083A7CF67
:10012A00CF93DF9300D000D000D0CDB7DEB79E8347
:10013A008D831A82198212C01C821B8205C08B8190
:10014A009C8101969C838B838B819C81883E934002
:10015A00B4F389819A8101969A83898329813A81A4
:10016A008D819E81281739073CF3000026960FB629
:0E017A00F894DEBF0FBECDBFDF91CF91089588
:10018800CF93DF93CDB7DEB781E390E021E330E092
:10019800F90120812061FC01208381E390E021E3C3
:1001A80030E0F90120812062FC01208381E390E0A6
:1001B80021E330E0F90120812064FC01208381E300
:1001C80090E021E330E0F90120812068FC012083E0
:0801D8000000DF91CF910895B2
:0401E0000C9400007B
:00000001FF
