S01A00006C63645F6B65797061645F647269766572732E737265639C
S11300000C942A000C943F000C943F000C943F0085
S11300100C943F000C943F000C943F000C943F0060
S11300200C943F000C943F000C943F000C943F0050
S11300300C943F000C943F000C943F000C943F0040
S11300400C943F000C943F000C943F000C943F0030
S11300500C943F0011241FBECFE5D8E0DEBFCDBF16
S113006010E0A0E6B0E0EAE1FBE102C005900D92E9
S1130070AC3AB107D9F70E94EB050C948B0D0C94A4
S11300800000CF93DF93CDB7DEB781E390E021E3A7
S113009030E0F9012081207FFC01208381E390E09E
S11300A021E330E0F9012081206FFC01208382E309
S11300B090E02FEFFC0120830000DF91CF910895A1
S11300C0CF93DF9300D000D0CDB7DEB71A82198268
S11300D013C182E390E022E330E0F9012081722F22
S11300E0409168005091690021E030E002C0220F85
S11300F0331F4A95E2F7622F40916A0050916B00DA
S113010021E030E002C0220F331F4A95E2F7622B50
S113011040916C0050916D0021E030E002C0220F4C
S1130120331F4A95E2F7622B40916E0050916F00A5
S113013021E030E002C0220F331F4A95E2F7262B5C
S1130140272BFC01208382E390E022E330E0F901D5
S11301502081622F29813A81220F331F28593F4F72
S1130160F9014081518121E030E002C0220F331FA8
S11301704A95E2F720952623FC0120831C821B82EA
S1130180B1C080E390E0FC018081882F90E02B8156
S11301903C81220F331F205A3F4FF90120813181C6
S11301A002C0959587952A95E2F781709927892B46
S11301B009F093C0000080E390E0FC018081882F67
S11301C090E02B813C81220F331F205A3F4FF901CD
S11301D02081318102C0959587952A95E2F7817037
S11301E09927892B41F389819A818130910531F1D5
S11301F0823091051CF4892B41F06FC08230910547
S1130200A9F1039709F44AC068C08B819C81892BAA
S113021011F487E377C08B819C81019711F484E307
S113022071C08B819C81029711F481E36BC08B8137
S11302309C81039709F04AC08FE364C08B819C8141
S1130240892B11F488E35EC08B819C81019711F4A2
S113025085E358C08B819C81029711F482E352C0DC
S11302608B819C810397A1F580E34CC08B819C8199
S1130270892B11F489E346C08B819C81019711F489
S113028086E340C08B819C81029711F483E33AC0DA
S11302908B819C810397F1F48DE334C08B819C8125
S11302A0892B11F48FE22EC08B819C81019711F46C
S11302B08AE228C08B819C81029711F48DE222C0CE
S11302C08B819C81039741F48BE21CC0000005C024
S11302D0000003C0000001C000008B819C810196D6
S11302E09C838B838B819C8104970CF44ACF8981F6
S11302F09A8101969A83898389819A8104970CF45F
S1130300E8CE8EE40F900F900F900F90DF91CF9175
S11303100895CF92DF92EF92FF92CF93DF93CDB700
S1130320DEB729970FB6F894DEBF0FBECDBF9E830C
S11303308D8378876F83498719821A821B821C8276
S11303408985882F90E08B32910589F08C32910554
S11303503CF48432910509F47DC08A97A1F176C0FA
S11303608D329105C9F08F9709F447C06FC02D8174
S11303703E818F819885820F931F092E000CAA0B52
S1130380BB0BBC01CD010E947F09DC01CB01898339
S11303909A83AB83BC8361C02D813E818F81988514
S11303A0A901481B590BCA01092E000CAA0BBB0B4F
S11303B0BC01CD010E947F09DC01CB0189839A83B2
S11303C0AB83BC834AC04D815E812F813885429FB7
S11303D0C001439F900D529F900D1124092E000CD3
S11303E0AA0BBB0BBC01CD010E947F09DC01CB0130
S11303F089839A83AB83BC8330C08F819885892B92
S113040059F18D819E81092E000CAA0BBB0BBC01F6
S1130410CD010E947F096B017C018F819885092E93
S1130420000CAA0BBB0BBC01CD010E947F09DC01AF
S1130430CB019C01AD01C701B6010E94D508DC01C6
S1130440CB0189839A83AB83BC8306C080E090E0B0
S1130450DC0107C0000001C0000089819A81AB81E2
S1130460BC81BC01CD0129960FB6F894DEBF0FBE46
S1130470CDBFDF91CF91FF90EF90DF90CF900895A3
S1130480CF93DF93CDB7DEB76C970FB6F894DEBF8A
S11304900FBECDBF80E090E0A0EAB1E489839A83E7
S11304A0AB83BC8320E030E04AE753E469817A817E
S11304B08B819C810E94340ADC01CB018B8B9C8B49
S11304C0AD8BBE8B20E030E040E85FE36B897C8934
S11304D08D899E890E94D00888232CF481E090E0C5
S11304E0988F8F8B3FC020E03FEF4FE757E46B8935
S11304F07C898D899E890E942F0A18164CF520E06C
S113050030E040E251E469817A818B819C810E94D0
S1130510340ADC01CB01BC01CD010E944E09DC018F
S1130520CB01988F8F8B0FC089E190E09A8F898FD0
S1130530898D9A8D0197F1F79A8F898F8F89988D7C
S11305400197988F8F8B8F89988D892B69F714C0A9
S11305506B897C898D899E890E944E09DC01CB01BF
S1130560988F8F8B8F89988D9C8F8B8F8B8D9C8D83
S11305700197F1F79C8F8B8F8AE390E02FEFFC01BA
S1130580208387E390E02FEFFC01208388E390E051
S113059028E330E0F9012081217FFC01208380E001
S11305A090E0A0E7B1E48D839E83AF83B88720E019
S11305B030E04AE753E46D817E818F8198850E9403
S11305C0340ADC01CB0189879A87AB87BC8720E09A
S11305D030E040E85FE369857A858B859C850E94DD
S11305E0D00888232CF481E090E09E878D873FC05B
S11305F020E03FEF4FE757E469857A858B859C853A
S11306000E942F0A18164CF520E030E040E251E435
S11306106D817E818F8198850E94340ADC01CB0133
S1130620BC01CD010E944E09DC01CB019E878D8760
S11306300FC089E190E0988B8F878F859889019707
S1130640F1F7988B8F878D859E8501979E878D877F
S11306508D859E85892B69F714C069857A858B857C
S11306609C850E944E09DC01CB019E878D878D8578
S11306709E859A8B898B89899A890197F1F79A8B40
S1130680898B0E940E0582E00E945C0388E20E942E
S11306905C0386E00E945C0380E80E945C038FE0B8
S11306A00E945C0300006C960FB6F894DEBF0FBE88
S11306B0CDBFDF91CF910895CF93DF931F92CDB734
S11306C0DEB789830E94E90488E390E028E330E000
S11306D0F90120812D7FFC01208388E390E028E349
S11306E030E0F90120812B7FFC0120838BE390E033
S11306F02BE330E0F9012081322F3F702981207FE4
S1130700232BFC0120830E9451048BE390E02BE314
S113071030E0F9012081422F4F702981222F30E0EF
S113072022953295307F3227207F3227242BFC01FB
S113073020830E94510488E390E028E330E0F9012B
S11307402081297FFC0120830E94510400000F9026
S1130750DF91CF910895CF93DF931F92CDB7DEB78A
S113076089830E94E90488E390E028E330E0F901FA
S113077020812260FC01208388E390E028E330E0BC
S1130780F90120812B7FFC0120838BE390E02BE394
S113079030E0F9012081322F3F702981207F232B03
S11307A0FC0120830E9451048BE390E02BE330E0B2
S11307B0F9012081422F4F702981222F30E02295A8
S11307C03295307F3227207F3227242BFC0120836F
S11307D00E9451040E94510400000F90DF91CF91B8
S11307E00895CF93DF9300D000D0CDB7DEB79C83BC
S11307F08B831A82198225C089819A8101969A83F2
S113080089838B819C819C012F5F3F4F3C832B8389
S1130810FC0180810E94AB0389819A81409729F46D
S113082060E081E00E942F040CC089819A81809746
S113083041F40E940E0560E080E00E942F041A82B9
S113084019828B819C81FC0180818823A9F6000098
S11308500F900F900F900F90DF91CF910895CF9349
S1130860DF9300D0CDB7DEB789836A83898188237B
S113087041F48A81803178F48A8180580E945C0333
S11308800AC08981813039F48A81803120F48A81D7
S113089080540E945C0300000F900F90DF91CF9171
S11308A00895CF93DF93CDB7DEB72E970FB6F894A4
S11308B0DEBF0FBECDBF88E390E028E330E0F9014E
S11308C02081277FFC01208380E090E0A0EFB1E449
S11308D089839A83AB83BC8320E030E04AE753E406
S11308E069817A818B819C810E94340ADC01CB016D
S11308F08D839E83AF83B88720E030E040E85FE3D8
S11309006D817E818F8198850E94D00888232CF484
S113091081E090E09A8789873FC020E03FEF4FE76E
S113092057E46D817E818F8198850E942F0A181665
S11309304CF520E030E040E251E469817A818B811A
S11309409C810E94340ADC01CB01BC01CD010E94D0
S11309504E09DC01CB019A8789870FC089E190E0B9
S11309609C878B878B859C850197F1F79C878B8768
S113097089859A8501979A87898789859A85892B9C
S113098069F714C06D817E818F8198850E944E091C
S1130990DC01CB019A87898789859A859E878D8713
S11309A08D859E850197F1F79E878D8788E390E07A
S11309B028E330E0F90120812860FC012083000055
S11309C02E960FB6F894DEBF0FBECDBFDF91CF9148
S11309D00895CF93DF93CDB7DEB78AE390E0FC01AF
S11309E0108288E390E028E330E0F901208124605C
S11309F0FC01208388E390E028E330E0F9012081C2
S1130A002D7FFC0120830E9451048AE390E020EFB3
S1130A10FC0120830000DF91CF910895CF93DF93F1
S1130A20CDB7DEB781E00E945C030000DF91CF9177
S1130A300895CF93DF93CDB7DEB72C970FB6F89414
S1130A40DEBF0FBECDBF9C878B878C858F938B8534
S1130A508F9380E790E0892F8F9380E790E08F93C6
S1130A60CE0101969F938F930E94A10A0F900F903D
S1130A700F900F900F900F90CE0101960E94F103FA
S1130A8000002C960FB6F894DEBF0FBECDBFDF91E9
S1130A90CF910895CF93DF93CDB7DEB7A2970FB66A
S1130AA0F894DEBF0FBECDBF6F8F78A389A39AA33E
S1130AB020E030E0A9016F8D78A189A19AA10E945C
S1130AC0D00888231CF483E790E002C085E790E017
S1130AD09A83898320E030E0A9016F8D78A189A1F0
S1130AE09AA10E94D008882334F48F8D98A1A9A1DB
S1130AF0BAA1B05804C08F8D98A1A9A1BAA18B83C3
S1130B009C83AD83BE836B817C818D819E810E9499
S1130B104709DC01CB0198878F838F819885092E43
S1130B20000CAA0BBB0BBC01CD010E947F09DC01A8
S1130B30CB019C01AD016B817C818D819E810E94E2
S1130B406308DC01CB0189879A87AB87BC8720E0E7
S1130B5030E44CE156E469857A858B859C850E9456
S1130B60340ADC01CB01BC01CD010E944709DC0140
S1130B70CB019E878D878E858F938D858F938885F6
S1130B808F938F818F938A818F9389818F9386E747
S1130B9090E0892F8F9386E790E08F93CE010F9694
S1130BA0292F2F938F930E94A10A8DB79EB70A967F
S1130BB00FB6F894DEBF0FBECDBFCE010F960E94D4
S1130BC0F1030000A2960FB6F894DEBF0FBECDBFAE
S1130BD0DF91CF910895CF92DF92EF92FF920F931E
S1130BE01F93CF93DF93CDB7DEB7EC970FB6F8948E
S1130BF0DEBF0FBECDBF0E9440020E94410080E0D4
S1130C0090E0A8E4B2E48B8B9C8BAD8BBE8B20E090
S1130C1030E04AE753E46B897C898D899E890E9480
S1130C20340ADC01CB018BAB9CABADABBEAB20E09B
S1130C3030E040E85FE36BA97CA98DA99EA90E94DE
S1130C40D00888232CF481E090E098AF8FAB3FC0AC
S1130C5020E03FEF4FE757E46BA97CA98DA99EA93B
S1130C600E942F0A18164CF520E030E040E251E4CF
S1130C706B897C898D899E890E94340ADC01CB01B1
S1130C80BC01CD010E944E09DC01CB0198AF8FABB2
S1130C900FC089E190E09AAF89AF89AD9AAD019711
S1130CA0F1F79AAF89AF8FA998AD019798AF8FAB41
S1130CB08FA998AD892B69F714C06BA97CA98DA95C
S1130CC09EA90E944E09DC01CB0198AF8FAB8FA97E
S1130CD098AD9CAF8BAF8BAD9CAD0197F1F79CAFFA
S1130CE08BAF19821E8684E28A831F86188A198A2A
S1130CF01A8A1B821C821D821E821F8218861986F4
S1130D001A8680E890E00E94F10380E090E0A6E972
S1130D10B3E48F8B988FA98FBA8F20E030E04AE735
S1130D2053E46F89788D898D9A8D0E94340ADC0191
S1130D30CB0189A79AA7ABA7BCA720E030E040E885
S1130D405FE369A57AA58BA59CA50E94D00888239A
S1130D502CF481E090E09EA78DA73FC020E03FEFF8
S1130D604FE757E469A57AA58BA59CA50E942F0A95
S1130D7018164CF520E030E040E251E46F89788D9C
S1130D80898D9A8D0E94340ADC01CB01BC01CD010E
S1130D900E944E09DC01CB019EA78DA70FC089E1FB
S1130DA090E098AB8FA78FA598A90197F1F798AB1E
S1130DB08FA78DA59EA501979EA78DA78DA59EA5FE
S1130DC0892B69F714C069A57AA58BA59CA50E94F7
S1130DD04E09DC01CB019EA78DA78DA59EA59AABDC
S1130DE089AB89A99AA90197F1F79AAB89AB0E94BB
S1130DF00E0588E990E00E94F10380E090E0A6E906
S1130E00B3E48B8F9C8FAD8FBE8F20E030E04AE738
S1130E1053E46B8D7C8D8D8D9E8D0E94340ADC0194
S1130E20CB018F8F98A3A9A3BAA320E030E040E8B8
S1130E305FE36F8D78A189A19AA10E94D0088823CD
S1130E402CF481E090E09CA38BA33FC020E03FEF13
S1130E504FE757E46F8D78A189A19AA10E942F0AC8
S1130E6018164CF520E030E040E251E46B8D7C8DA7
S1130E708D8D9E8D0E94340ADC01CB01BC01CD0115
S1130E800E944E09DC01CB019CA38BA30FC089E116
S1130E9090E09EA38DA38DA19EA10197F1F79EA33F
S1130EA08DA38BA19CA101979CA38BA38BA19CA137
S1130EB0892B69F714C06F8D78A189A19AA10E942A
S1130EC04E09DC01CB019CA38BA38BA19CA198A709
S1130ED08FA38FA198A50197F1F798A78FA30E94DC
S1130EE00E051B861C861D868C85882321F40E9492
S1130EF06000898308C08D85882329F00E946000E2
S1130F008E878E85898389818B3249F089818D32E0
S1130F1031F089818A3219F089818F3231F48981E3
S1130F208A8381E08C8781E08D878981803378F1A1
S1130F3089818A3360F58A81843249F520E030E082
S1130F4040E251E46B817C818D819E810E94340A50
S1130F50DC01CB016C017D018981882F90E0C09771
S1130F60092E000CAA0BBB0BBC01CD010E947F090A
S1130F70DC01CB019C01AD01C701B6010E946408EC
S1130F80DC01CB018B839C83AD83BE8331C089811B
S1130F90803370F189818A3358F58A81843241F132
S1130FA020E030E040E251E46F81788589859A85BC
S1130FB00E94340ADC01CB016C017D018981882FF8
S1130FC090E0C097092E000CAA0BBB0BBC01CD010D
S1130FD00E947F09DC01CB019C01AD01C701B60170
S1130FE00E946408DC01CB018F839887A987BA87A4
S1130FF08981882F90E08F33910529F08E349105F3
S113100009F45FC00FC00E940E0584E28A831B822C
S11310101C821D821E821F82188619861A861C86CF
S11310201D8650C08B85803129F460E081E00E94E8
S11310302F041B8689810E94AB0389818D33E9F5D6
S11310406F81788589859A850E944709DC01CB01E7
S11310508C016B817C818D819E810E944709DC011A
S1131060CB014A81B8010E948901DC01CB018F8741
S1131070988BA98BBA8B8A818F3249F48F85988992
S1131080A989BA89BC01CD010E944A050AC06F85AD
S1131090788989899A890E944709DC01CB010E94D9
S11310A0190584E28A831B821C821D821E821F8290
S11310B0188619861A861C861D868B858F5F8B87FA
S11310C001C0000011CF5058BB27AA270E947B08FB
S11310D00C94F5090E94E70938F00E94EE0920F00B
S11310E039F49F3F19F426F40C94E4090EF4E095C6
S11310F0E7FB0C94DE09E92F0E94060A58F3BA179D
S1131100620773078407950720F079F4A6F50C9419
S1131110280A0EF4E0950B2EBA2FA02D0B01B9016D
S113112090010C01CA01A0011124FF27591B99F059
S1131130593F50F4503E68F11A16F040A22F232F65
S1131140342F4427585FF3CF469537952795A795B5
S1131150F0405395C9F77EF41F16BA0B620B730B5C
S1131160840BBAF09150A1F0FF0FBB1F661F771FCD
S1131170881FC2F70EC0BA0F621F731F841F48F482
S1131180879577956795B795F7959E3F08F0B0CF0B
S11311909395880F08F09927EE0F979587950895F2
S11311A00E94BA0908F481E008950E94E9080C94A9
S11311B0F5090E94EE0958F00E94E70940F029F46D
S11311C05F3F29F00C94DE0951110C94290A0C9408
S11311D0E4090E94060A68F39923B1F3552391F3B5
S11311E0951B550BBB27AA2762177307840738F092
S11311F09F5F5F4F220F331F441FAA1FA9F335D0EF
S11312000E2E3AF0E0E832D091505040E695001CA2
S1131210CAF72BD0FE2F29D0660F771F881FBB1F5C
S1131220261737074807AB07B0E809F0BB0B802D3A
S1131230BF01FF2793585F4F3AF09E3F510578F066
S11312400C94DE090C94290A5F3FE4F3983ED4F32E
S1131250869577956795B795F7959F5FC9F7880F3A
S1131260911D9695879597F90895E1E0660F771F8C
S1131270881FBB1F621773078407BA0720F0621B1D
S1131280730B840BBA0BEE1F88F7E09508950E9448
S11312904E096894B1110C94290A08950E940E0A0B
S11312A088F09F5798F0B92F9927B751B0F0E1F023
S11312B0660F771F881F991F1AF0BA95C9F714C0D3
S11312C0B13091F00E94280AB1E008950C94280AE4
S11312D0672F782F8827B85F39F0B93FCCF386950C
S11312E077956795B395D9F73EF490958095709569
S11312F061957F4F8F4F9F4F0895E89409C097FBE6
S11313003EF490958095709561957F4F8F4F9F4FD8
S11313109923A9F0F92F96E9BB279395F69587951C
S113132077956795B795F111F8CFFAF4BB0F11F4DF
S113133060FF1BC06F5F7F4F8F4F9F4F16C0882386
S113134011F096E911C0772321F09EE8872F762FBC
S113135005C0662371F096E8862F70E060E02AF0FD
S11313609A95660F771F881FDAF7880F96958795E9
S113137097F90895990F0008550FAA0BE0E8FEEFBE
S113138016161706E807F907C0F012161306E40745
S1131390F50798F0621B730B840B950B39F40A263E
S11313A061F0232B242B252B21F408950A2609F41C
S11313B0A140A6958FEF811D811D089597F99F6720
S11313C080E870E060E008959FEF80EC08950024C9
S11313D00A941616170618060906089500240A9496
S11313E012161306140605060895092E0394000C1C
S11313F011F4882352F0BB0F40F4BF2B11F460FFAB
S113140004C06F5F7F4F8F4F9F4F089557FD9058D3
S1131410440F551F59F05F3F71F04795880F97FBB4
S1131420991F61F09F3F79F087950895121613066E
S11314301406551FF2CF4695F1DF08C0161617069D
S11314401806991FF1CF86957105610508940895D2
S1131450E894BB2766277727CB0197F908950E9464
S1131460BA0908F48FEF08950E94470A0C94F5090D
S11314700E94E70938F00E94EE0920F0952311F04C
S11314800C94DE090C94E40911240C94290A0E949A
S1131490060A70F3959FC1F3950F50E0551F629FA4
S11314A0F001729FBB27F00DB11D639FAA27F00DB9
S11314B0B11DAA1F649F6627B00DA11D661F829FE0
S11314C02227B00DA11D621F739FB00DA11D621FC5
S11314D0839FA00D611D221F749F3327A00D611DE2
S11314E0231F849F600D211D822F762F6A2F1124C4
S11314F09F5750409AF0F1F088234AF0EE0FFF1FF7
S1131500BB1F661F771F881F91505040A9F79E3F4D
S1131510510580F00C94DE090C94290A5F3FE4F332
S1131520983ED4F3869577956795B795F795E795A3
S11315309F5FC1F7FE2B880F911D9695879597F9AC
S11315400895AEE0B0E0E7EAFAE00C94620D0D898C
S11315501E8986E08C831A8309838FEF9FE79E831D
S11315608D83AE01475E5F4F6F89788DCE01019602
S11315700E94C30AEF81F885E00FF11F10822E96B6
S1131580E4E00C947E0DABE0B0E0E9ECFAE00C94FE
S1131590540D6C017B018A01FC0117821682838140
S11315A081FFCCC1CE0101963C01F6019381F70184
S11315B093FD859193FF81917F01882309F4BAC13A
S11315C0853239F493FD859193FF81917F018532B2
S11315D029F4B60190E00E94BA0CE7CF912C212C9B
S11315E0312CFFE1F315D8F08B3279F038F48032E6
S11315F079F08332A1F4232D20611DC08D3261F076
S1131600803369F4232D216016C0832D8260382E27
S1131610E32DE4603E2E2AC0F32DF8601DC037FC94
S11316202DC020ED280F2A3040F08E32B9F436FC5C
S113163081C1232D2064322E19C036FE06C08AE0F3
S1131640989E200D1124922E11C0EAE02E9E200DAA
S11316501124222EF32DF0623F2E08C08C3621F483
S1131660832D8068382E02C0883641F4F70193FD3B
S1131670859193FF81917F018111B3CF982F9F7D35
S11316809554933028F40C5F1F4F9FE399830DC04A
S1131690833631F0833771F0833509F059C021C0A6
S11316A0F801808189830E5F1F4F88248394912CD5
S11316B0530113C02801F2E04F0E511CF801A08021
S11316C0B18036FE03C0692D70E002C06FEF7FEF7A
S11316D0C5010E94AF0C4C018201F32DFF773F2E10
S11316E016C0280122E0420E511CF801A080B180EE
S11316F036FE03C0692D70E002C06FEF7FEFC501B5
S11317000E94A40C4C01F32DF0683F2E820133FC9F
S11317101BC0822D90E088169906B0F4B60180E2D1
S113172090E00E94BA0C2A94F4CFF50137FC85911D
S113173037FE81915F01B60190E00E94BA0C21103E
S11317402A9421E0821A91088114910471F7E8C067
S1131750843611F0893641F5F80137FE07C06081FF
S11317607181828193810C5F1F4F08C060817181F8
S1131770072E000C880B990B0E5F1F4FF32DFF767D
S11317803F2E97FF09C090958095709561957F4F86
S11317908F4F9F4FF0683F2E2AE030E0A3010E9454
S11317A0F60C882E861845C0853731F4232D2F7EFC
S11317B0B22E2AE030E025C0932D997FB92E8F36C2
S11317C0C1F018F4883579F0B5C0803719F088373E
S11317D021F0B0C0E92FE061BE2EB4FE0DC0FB2D98
S11317E0F460BF2E09C034FE0AC0292F2660B22E31
S11317F006C028E030E005C020E130E002C020E16E
S113180032E0F801B7FE07C0608171818281938163
S11318100C5F1F4F06C06081718180E090E00E5F15
S11318201F4FA3010E94F60C882E8618FB2DFF770C
S11318303F2E36FE0DC0232D2E7FA22E891458F480
S113184034FE0BC032FC09C0832D8E7EA82E05C049
S1131850B82CA32C03C0B82C01C0B92CA4FE0FC013
S1131860FE01E80DF11D8081803321F49A2D997ECB
S1131870A92E09C0A2FE06C0B394B39404C08A2D55
S1131880867809F0B394A3FC11C0A0FE06C0B2147C
S113189088F4280C922C9B180EC0B21460F4B60184
S11318A080E290E00E94BA0CB394F7CFB21418F41B
S11318B02B1802C0982C212CA4FE10C0B60180E382
S11318C090E00E94BA0CA2FE17C0A1FC03C088E7F6
S11318D090E002C088E590E0B6010CC08A2D8678BD
S11318E059F0A1FE02C08BE201C080E2A7FC8DE2A8
S11318F0B60190E00E94BA0C891438F4B60180E372
S113190090E00E94BA0C9A94F7CF8A94F301E80D00
S1131910F11D8081B60190E00E94BA0C8110F5CFD0
S1131920222009F442CEB60180E290E00E94BA0C73
S11319302A94F6CFF6018681978102C08FEF9FEF3C
S11319402B96E2E10C94700DFC01059061507040FF
S11319500110D8F7809590958E0F9F1F0895FC0174
S11319606150704001900110D8F7809590958E0FCA
S11319709F1F08950F931F93CF93DF93FB01238140
S113198021FD03C08FEF9FEF2CC022FF16C04681BC
S11319905781248135814217530744F4A081B181D2
S11319A09D012F5F3F4F318320838C9326813781A4
S11319B02F5F3F4F3783268314C08B01EC01FB015B
S11319C00084F185E02D0995892BE1F6D80116965E
S11319D08D919C911797019617969C938E931697C9
S11319E0CE01DF91CF911F910F910895FA01AA279B
S11319F0283051F1203181F1E8946F936E7F6E5F4E
S1131A007F4F8F4F9F4FAF4FB1E03ED0B4E03CD0FB
S1131A10670F781F891F9A1FA11D680F791F8A1FDE
S1131A20911DA11D6A0F711D811D911DA11D20D045
S1131A3009F468943F912AE0269F11243019305DFF
S1131A403193DEF6CF010895462F4770405D4193F0
S1131A50B3E00FD0C9F7F6CF462F4F70405D4A333D
S1131A6018F0495D31FD4052419302D0A9F7EACF05
S1131A70B4E0A6959795879577956795BA95C9F734
S1131A8000976105710508959B01AC010A2E069427
S1131A905795479537952795BA95C9F7620F731FE0
S1131AA0841F951FA01D08952F923F924F925F921D
S1131AB06F927F928F929F92AF92BF92CF92DF925A
S1131AC0EF92FF920F931F93CF93DF93CDB7DEB7BF
S1131AD0CA1BDB0B0FB6F894DEBF0FBECDBF099453
S1131AE02A88398848885F846E847D848C849B84AA
S1131AF0AA84B984C884DF80EE80FD800C811B81B8
S1131B00AA81B981CE0FD11D0FB6F894DEBF0FBEE6
S10D1B10CDBFED010895F894FFCF56
S1131B1A000001000200030004000500060007009B
S1131B2A2564002D0000257325642E2530346400B5
S1131B3A48656C6C6F2C2049276D204E61646120C6
S1131B4A5368616162616E0043616C63756C6174B0
S10F1B5A6F722050726F6A6563743A0069
S9030000FC
