:100000000C942A000C9434000C9434000C943400AA
:100010000C9434000C9434000C9434000C94340090
:100020000C9434000C9434000C9434000C94340080
:100030000C9434000C9434000C9434000C94340070
:100040000C9434000C9434000C9434000C94340060
:100050000C94340011241FBECFE5D8E0DEBFCDBF25
:100060000E9459000C949D000C940000CF93DF93E4
:10007000CDB7DEB78AE390E02FEFFC0120838BE35E
:1000800090E0FC01108284E390E024E330E0F90189
:1000900020812E7FFC01208385E390E025E330E082
:1000A000F90120812160FC0120830000DF91CF91C4
:1000B0000895CF93DF9300D0CDB7DEB70E9436000E
:1000C00087E090E09A83898383E390E0FC0180815C
:1000D000882F90E081709927892B11F512C08BE34E
:1000E00090E02BE330E0F9012081422F21E030E065
:1000F000098002C0220F331F0A94E2F7242BFC016F
:10010000208383E390E0FC018081882F90E0817060
:100110009927892B21F389819A8101979A83898371
:1001200089819A81029681F68BE390E0FC0110822E
:0E01300087E090E09A838983C7CFF894FFCFD1
:00000001FF
