:100000000C942A000C9434000C9434000C943400AA
:100010000C9434000C9434000C9434000C94340090
:100020000C9434000C9434000C9434000C94340080
:100030000C9434000C9434000C9434000C94340070
:100040000C9434000C9434000C9434000C94340060
:100050000C94340011241FBECFE5D8E0DEBFCDBF25
:100060000E9472000C94C2000C940000CF93DF93A6
:10007000CDB7DEB78AE390E02FEFFC0120830000CC
:10008000DF91CF910895CF93DF9300D000D000D0BF
:10009000CDB7DEB79E838D831A82198212C01C826F
:1000A0001B8205C08B819C8101969C838B838B81F5
:1000B0009C81883E9340B4F389819A8101969A830A
:1000C000898329813A818D819E81281739073CF3E4
:1000D000000026960FB6F894DEBF0FBECDBFDF91AD
:1000E000CF910895CF93DF9300D000D0CDB7DEB786
:1000F0000E94360087E090E09A8389831BC08BE3DF
:1001000090E02BE330E0F9012081422F21E030E044
:10011000098002C0220F331F0A94E2F7242BFC014E
:10012000208384E190E00E94430089819A810197B5
:100130009A83898389819A8199230CF71C821B8277
:100140001CC08BE390E02BE330E0F9012081422FCB
:1001500021E030E00B8002C0220F331F0A94E2F747
:1001600020952423FC01208384E190E00E94430039
:100170008B819C8101969C838B838B819C810897CA
:0801800004F3B8CFF894FFCF9F
:00000001FF
