:020000040800F2
:10000000002800209D040008ED040008ED0400080D
:10001000ED040008ED040008ED04000800000000F5
:10002000000000000000000000000000ED040008D7
:10003000ED04000800000000ED040008ED040008D5
:10004000ED040008ED040008ED040008ED040008CC
:10005000ED040008ED040008ED040008ED040008BC
:10006000ED040008ED040008ED040008ED040008AC
:10007000ED040008ED040008ED040008ED0400089C
:10008000ED040008ED040008ED040008ED0400088C
:10009000ED040008ED040008ED040008ED0400087C
:1000A000ED040008ED040008ED040008ED0400086C
:1000B000ED040008ED040008ED040008ED0400085C
:1000C000ED040008ED040008ED040008ED0400084C
:1000D000ED040008ED040008ED040008ED0400083C
:1000E000ED040008ED04000800000000ED04000825
:1000F000ED040008ED040008ED040008ED0400081C
:10010000ED040008ED040008ED040008ED0400080B
:10011000ED040008ED040008ED040008ED040008FB
:10012000ED040008ED040008ED040008ED040008EB
:1001300010B5054C237833B9044B13B10448AFF321
:1001400000800123237010BD00000020000000008B
:100150003805000808B5034B1BB103490348AFF34A
:10016000008008BD000000000400002038050008E1
:1001700080B483B000AF0346FB80FB88802B42D065
:10018000802B11DC082B36D0082B06DC022B2ED05E
:10019000042B2ED0012B28D047E0202B2FD0402B32
:1001A0002FD0102B29D040E0B3F5006F33D0B3F53A
:1001B000006F09DCB3F5007F29D0B3F5806F28D03C
:1001C000B3F5807F21D030E0B3F5005F27D0B3F5E1
:1001D000005F03DCB3F5805F1FD026E0B3F5804FEE
:1001E0001FD0B3F5004F1ED01FE000231EE00423F4
:1001F0001CE008231AE00C2318E0102316E0142357
:1002000014E0182312E01C2310E000230EE0042366
:100210000CE008230AE00C2308E0102306E0142376
:1002200004E0182302E01C2300E0002318460C37EA
:10023000BD4680BC704790B585B000AF786039602E
:100240003B681B88FF2B01D87B6801E07B68043387
:10025000BB600023FB733B681B881846FFF788FFD1
:1002600003461A460F239340DA43BB681B681A40C3
:10027000BB681A603B689B78062B0BD03B689B7869
:10028000072B07D03B689B78042B03D03B689B78F7
:10029000052B0ED13B689B78043B9B005AB23B6810
:1002A000DB785BB213435BB2DBB203F00F03FB738B
:1002B0002CE03B689B78012B03D03B689B78002B9C
:1002C00007D13B689B789B00DBB203F00F03FB7305
:1002D0001CE03B689B78082B02D10423FB7315E0DC
:1002E0000823FB733B689B78022B07D17B68DB6894
:1002F0003A6812881A437B68DA6007E07B68DB683B
:100300003A681288D2431A407B68DA60FC7B3B680B
:100310001B881846FFF72CFF034604FA03F2BB685C
:100320001B681A43BB681A6000BF1437BD4690BDF6
:1003300080B485B000AF78600B467B807B689A689C
:100340007B881340002B02D00123FB7301E00023C4
:10035000FB73FB7B18461437BD4680BC704780B4E6
:1003600083B000AF78600B467B807B68DA687B885F
:100370005A407B68DA6000BF0C37BD4680BC7047CE
:1003800080B400AF074B9B69064A43F004039361B6
:10039000044B9B69034A43F00803936100BFBD46C9
:1003A00080BC70470010024080B582B000AF0223CD
:1003B000BB800123BB713B1D19461448FFF73BFF6F
:1003C0000223BB800423BB710123FB713B1D194633
:1003D0000F48FFF730FF4FF40053BB800123BB7180
:1003E0003B1D19460948FFF726FF4FF40053BB8019
:1003F0000423BB710123FB713B1D19460448FFF721
:100400001AFF00BF0837BD4680BD00BF000801408D
:10041000000C014080B485B000AF78600023FB6021
:1004200002E0FB680133FB607B68FA689A42F8D30C
:1004300000BF1437BD4680BC7047000080B500AFD8
:10044000FFF79EFFFFF7B0FF02211248FFF770FF92
:100450000346002B0BD102210F48FFF780FF00BF9E
:1004600002210C48FFF764FF0346002BF8D04FF43D
:1004700000510848FFF75CFF0346012B04D14FF4FD
:1004800000510548FFF76BFF4FF4FA70FFF7C2FF0A
:10049000DAE700BF00080140000C01400D48854626
:1004A000AFF300800C480D490D4A002302E0D458F8
:1004B000C4500433C4188C42F9D30A4A0A4C0023AE
:1004C00001E013600432A242FBD300F011F8FFF701
:1004D000B5FFFEE7002800200000002000000020FB
:1004E00058050008000000201C000020FEE7000066
:1004F00070B500250C4E0D4CA41BA410A54209D1CB
:1005000000F01AF800250A4E0A4CA41BA410A542BC
:1005100005D170BD56F8253098470135EEE756F8FD
:10052000253098470135F2E75005000850050008CE
:100530005005000854050008F8B500BFF8BC08BC19
:100540009E467047F8B500BFF8BC08BC9E46704791
:040550005501000849
:040554003101000869
:040000050800049D4E
:00000001FF
