:020000040800F2
:1000000000280020C902000819030008190300088D
:100010001903000819030008190300080000000074
:1000200000000000000000000000000019030008AC
:100030001903000800000000190300081903000854
:100040001903000819030008190300081903000820
:100050001903000819030008190300081903000810
:100060001903000819030008190300081903000800
:1000700019030008190300081903000819030008F0
:1000800019030008190300081903000819030008E0
:1000900019030008190300081903000819030008D0
:1000A00019030008190300081903000819030008C0
:1000B00019030008190300081903000819030008B0
:1000C00019030008190300081903000819030008A0
:1000D0001903000819030008190300081903000890
:1000E00019030008190300080000000019030008A4
:1000F0001903000819030008190300081903000870
:10010000190300081903000819030008190300085F
:10011000190300081903000819030008190300084F
:10012000190300081903000819030008190300083F
:1001300010B5054C237833B9044B13B10448AFF321
:1001400000800123237010BD00000020000000008B
:100150006403000808B5034B1BB103490348AFF320
:10016000008008BD000000000400002064030008B7
:1001700080B400AF074B1B68064A43F004031360CA
:10018000044B1B68034A43F00803136000BFBD46DD
:1001900080BC70471810024080B400AF224B002290
:1001A0001A60224B00221A60214B00221A60214B58
:1001B00000221A60204B00221A60204B00221A6095
:1001C0001A4B1B68194A23F030031360174B1B6846
:1001D000164A43F040031360174B1B68164A23F07E
:1001E000C0031360144B1B68134A43F010031360E1
:1001F0000D4B1B680C4A23F4401313600A4B1B6819
:10020000094A43F4800313600A4B1B68094A43F40C
:1002100080131360074B1B68064A23F440031360E6
:1002200000BFBD4680BC7047040801400008014083
:100230000C080140040C0140000C01400C0C014072
:1002400080B485B000AF78600023FB6002E0FB68FB
:100250000133FB607B68FA689A42F8D300BF143719
:10026000BD4680BC7047000080B500AFFFF780FF3F
:10027000FFF792FF124B1B6803F00203002B0CD117
:10028000104B1B680F4A83F00203136000BF0C4B36
:100290001B6803F00203002BF9D0094B1B685B0BB2
:1002A00003F00103012B05D1064B1B68054A83F4BB
:1002B000005313604FF4FA70FFF7C2FFDAE700BF94
:1002C000080801400C0C01400D488546AFF3008042
:1002D0000C480D490D4A002302E0D458C4500433A1
:1002E000C4188C42F9D30A4A0A4C002301E0136077
:1002F0000432A242FBD300F011F8FFF7B5FFFEE78E
:1003000000280020000000200000002084030008D6
:10031000000000201C000020FEE7000070B5002552
:100320000C4E0D4CA41BA410A54209D100F01AF8E4
:1003300000250A4E0A4CA41BA410A54205D170BD8D
:1003400056F8253098470135EEE756F8253098479E
:100350000135F2E77C0300087C0300087C030008F9
:1003600080030008F8B500BFF8BC08BC9E46704783
:0C037000F8B500BFF8BC08BC9E46704702
:04037C00550100081F
:04038000310100083F
:04000005080002C924
:00000001FF
