:100000000C942A000C9436000C9455000C94740047
:100010000C94B0000C94B0000C94B0000C94B000A0
:100020000C94B0000C94B0000C94B0000C94B00090
:100030000C94B0000C94B0000C94B0000C94B00080
:100040000C94B0000C94B0000C94B0000C94B00070
:100050000C94B00011241FBECFE5D8E0DEBFCDBFA9
:0C0060000E9493000C943400F894FFCF31
:10006C001F920F920FB60F9211242F938F939F9381
:10007C0082B3806282BB2FEF80E792E021508040F8
:10008C009040E1F700C0000082B38F7D82BB9F914E
:0E009C008F912F910F900FBE0F901F9018950F
:1000AA001F920F920FB60F9211242F938F939F9343
:1000BA0082B3806482BB2FEF80E792E021508040B8
:1000CA009040E1F700C0000082B38F7B82BB9F9112
:0E00DA008F912F910F900FBE0F901F901895D1
:1000E8001F920F920FB60F9211242F938F939F9305
:1000F80082B3806882BB2FEF80E792E02150804076
:100108009040E1F700C0000082B38F7782BB9F91D7
:0E0118008F912F910F900FBE0F901F90189592
:100126000E94A20082B38F7D82BB82B38F7B82BB8B
:0E01360082B38F7782BB81B3806E81BBFFCF17
:100144008BB7806E8BBF8AB7806E8ABF789485B771
:0C015400816085BF85B78C6085BF089571
:040160000C940000FB
:00000001FF
